{
  "contractName": "Election",
  "abi": [
    {
      "constant": true,
      "inputs": [],
      "name": "AuthorizedVoterCount",
      "outputs": [
        {
          "name": "",
          "type": "uint256"
        }
      ],
      "payable": false,
      "stateMutability": "view",
      "type": "function"
    },
    {
      "constant": true,
      "inputs": [],
      "name": "candidatesCount",
      "outputs": [
        {
          "name": "",
          "type": "uint256"
        }
      ],
      "payable": false,
      "stateMutability": "view",
      "type": "function"
    },
    {
      "constant": true,
      "inputs": [
        {
          "name": "",
          "type": "uint256"
        }
      ],
      "name": "candidates",
      "outputs": [
        {
          "name": "id",
          "type": "uint256"
        },
        {
          "name": "name",
          "type": "string"
        },
        {
          "name": "voteCount",
          "type": "uint256"
        }
      ],
      "payable": false,
      "stateMutability": "view",
      "type": "function"
    },
    {
      "constant": true,
      "inputs": [
        {
          "name": "",
          "type": "address"
        }
      ],
      "name": "voters",
      "outputs": [
        {
          "name": "",
          "type": "bool"
        }
      ],
      "payable": false,
      "stateMutability": "view",
      "type": "function"
    },
    {
      "constant": true,
      "inputs": [
        {
          "name": "",
          "type": "uint256"
        }
      ],
      "name": "authorizedvoters",
      "outputs": [
        {
          "name": "securePin",
          "type": "uint256"
        },
        {
          "name": "pid",
          "type": "uint256"
        },
        {
          "name": "voted",
          "type": "bool"
        }
      ],
      "payable": false,
      "stateMutability": "view",
      "type": "function"
    },
    {
      "inputs": [],
      "payable": false,
      "stateMutability": "nonpayable",
      "type": "constructor"
    },
    {
      "anonymous": false,
      "inputs": [
        {
          "indexed": true,
          "name": "_candidateId",
          "type": "uint256"
        }
      ],
      "name": "votedEvent",
      "type": "event"
    },
    {
      "constant": false,
      "inputs": [
        {
          "name": "_candidateId",
          "type": "uint256"
        },
        {
          "name": "_pin",
          "type": "uint256"
        }
      ],
      "name": "vote",
      "outputs": [],
      "payable": false,
      "stateMutability": "nonpayable",
      "type": "function"
    }
  ],
  "bytecode": "0x608060405234801561001057600080fd5b5061005e6040805190810160405280601481526020017f546865204475636b2050617274792028544450290000000000000000000000008152506101b2640100000000026401000000009004565b6100ab6040805190810160405280601481526020017f54686520576f6c662050617274792028545746290000000000000000000000008152506101b2640100000000026401000000009004565b6100f86040805190810160405280601381526020017f54686520446f67205061727479202854444729000000000000000000000000008152506101b2640100000000026401000000009004565b6101456040805190810160405280601381526020017f54686520436174205061727479202854435029000000000000000000000000008152506101b2640100000000026401000000009004565b61015f61082361022f640100000000026401000000009004565b610179610bc561022f640100000000026401000000009004565b6101936107d361022f640100000000026401000000009004565b6101ad6107d361022f640100000000026401000000009004565b610354565b6003600081548092919060010191905055506060604051908101604052806003548152602001828152602001600081525060016000600354815260200190815260200160002060008201518160000155602082015181600101908051906020019061021e9291906102af565b506040820151816002015590505050565b60046000815480929190600101919050555060606040519081016040528082815260200160045481526020016000151581525060026000838152602001908152602001600020600082015181600001556020820151816001015560408201518160020160006101000a81548160ff02191690831515021790555090505050565b828054600181600116156101000203166002900490600052602060002090601f016020900481019282601f106102f057805160ff191683800117855561031e565b8280016001018555821561031e579182015b8281111561031d578251825591602001919060010190610302565b5b50905061032b919061032f565b5090565b61035191905b8082111561034d576000816000905550600101610335565b5090565b90565b610563806103636000396000f300608060405260043610610078576000357c0100000000000000000000000000000000000000000000000000000000900463ffffffff168063156da7011461007d5780632d35a8a2146100a85780633477ee2e146100d3578063a3ec138d14610187578063b384abef146101e2578063c8ff974314610219575b600080fd5b34801561008957600080fd5b5061009261026c565b6040518082815260200191505060405180910390f35b3480156100b457600080fd5b506100bd610272565b6040518082815260200191505060405180910390f35b3480156100df57600080fd5b506100fe60048036038101908080359060200190929190505050610278565b6040518084815260200180602001838152602001828103825284818151815260200191508051906020019080838360005b8381101561014a57808201518184015260208101905061012f565b50505050905090810190601f1680156101775780820380516001836020036101000a031916815260200191505b5094505050505060405180910390f35b34801561019357600080fd5b506101c8600480360381019080803573ffffffffffffffffffffffffffffffffffffffff16906020019092919050505061033a565b604051808215151515815260200191505060405180910390f35b3480156101ee57600080fd5b50610217600480360381019080803590602001909291908035906020019092919050505061035a565b005b34801561022557600080fd5b5061024460048036038101908080359060200190929190505050610500565b6040518084815260200183815260200182151515158152602001935050505060405180910390f35b60045481565b60035481565b6001602052806000526040600020600091509050806000015490806001018054600181600116156101000203166002900480601f01602080910402602001604051908101604052809291908181526020018280546001816001161561010002031660029004801561032a5780601f106102ff5761010080835404028352916020019161032a565b820191906000526020600020905b81548152906001019060200180831161030d57829003601f168201915b5050505050908060020154905083565b60006020528060005260406000206000915054906101000a900460ff1681565b6002600082815260200190815260200160002060020160009054906101000a900460ff1615151561038a57600080fd5b8060026000838152602001908152602001600020600001541415156103ae57600080fd5b6000803373ffffffffffffffffffffffffffffffffffffffff1673ffffffffffffffffffffffffffffffffffffffff16815260200190815260200160002060009054906101000a900460ff1615151561040657600080fd5b60008211801561041857506003548211155b151561042357600080fd5b60016000803373ffffffffffffffffffffffffffffffffffffffff1673ffffffffffffffffffffffffffffffffffffffff16815260200190815260200160002060006101000a81548160ff021916908315150217905550600160008381526020019081526020016000206002016000815480929190600101919050555060016002600083815260200190815260200160002060020160006101000a81548160ff021916908315150217905550817ffff3c900d938d21d0990d786e819f29b8d05c1ef587b462b939609625b684b1660405160405180910390a25050565b60026020528060005260406000206000915090508060000154908060010154908060020160009054906101000a900460ff169050835600a165627a7a72305820e76f048435c5c3f4ed99e107f12ab03e714475036fbcaa3941265e1842078b510029",
  "source": "pragma solidity ^0.4.26;\n\ncontract Election {\n    // Model a Candidate\n    struct Candidate {\n        uint id;\n        string name;\n        uint voteCount;\n    }\n\n\n    // Model an Authorized Voter ...added code\n    struct AuthorizedVoter {\n        \n        uint securePin;\n        uint pid;\n        bool voted;\n\n\n    }\n\n    \n    // Store accounts that have voted...added code\n    mapping(address => bool) public voters;\n\n    // Store Candidates\n    // Fetch Candidate\n    mapping(uint => Candidate) public candidates;\n\n    // Store Authorized Voters that have voted...added code\n    mapping(uint => AuthorizedVoter) public authorizedvoters;\n\n    // Store Candidates Count\n    uint public candidatesCount;\n\n    //Store Authorized Voters Count...Added code\n    uint public AuthorizedVoterCount;\n\n\n    // voted event\n    event votedEvent (\n        uint indexed _candidateId\n    );\n\n    constructor () public {\n        addCandidate(\"The Duck Party (TDP)\");\n        addCandidate(\"The Wolf Party (TWF)\");\n        addCandidate(\"The Dog Party (TDG)\");\n        addCandidate(\"The Cat Party (TCP)\");\n\n        addAuthorizedVoter(2083);\n        addAuthorizedVoter(3013);\n        addAuthorizedVoter(2003);\n        addAuthorizedVoter(2003);\n\n    }\n\n    function addCandidate (string _name) private {\n        candidatesCount ++;\n        candidates[candidatesCount] = Candidate(candidatesCount, _name, 0);\n    }\n\n    //Function to add authorized voter....added code\n    function addAuthorizedVoter (uint _securePin) private {\n        \n       // for(i=1; i<=authorizedvoters[AuthorizedVoterCount]; i++){\n\n         //   if(authorizedvoters[securePin] == _securePin)\n\n               AuthorizedVoterCount ++;\n               authorizedvoters[_securePin] = AuthorizedVoter(_securePin, AuthorizedVoterCount, false);\n      // } \n    }\n\n    //////////////////////////////////////////////////////////////\n    //testing images\n\n\n    function vote (uint _candidateId, uint _pin) public {\n\n        //require a valid authorized voter...added code\n        require(!authorizedvoters[_pin].voted);\n\n        //ensure only a valid pin can vote\n        require(authorizedvoters[_pin].securePin == _pin);\n\n        // require that they haven't voted before\n        require(!voters[msg.sender]);\n\n        //require(authorizedvoters[_pin]);\n\n        // require a valid candidate\n        require(_candidateId > 0 && _candidateId <= candidatesCount);\n\n        // record that voter has voted\n        voters[msg.sender] = true;\n\n        // update candidate vote Count\n        candidates[_candidateId].voteCount ++;\n\n       // update authorized voters vote Count\n        authorizedvoters[_pin].voted = true;\n\n        // trigger voted event\n        emit votedEvent(_candidateId);\n    }\n}\n",
  "sourcePath": "C:\\Users\\Renard\\Desktop\\UNIVERISTY OF GUYANA -4TH YEAR SEMESTER 2\\CSE 4202\\ASSIGNMENTS\\PROJECT - Blockchain Voting System\\VIDEOS\\E voting tutorial - DAPP University\\Code\\TESTING\\Working Zeenat Version\\project\\contracts\\Election.sol",
  "compiler": {
    "name": "solc",
    "version": "0.4.26+commit.4563c3fc.Emscripten.clang"
  },
  "schemaVersion": "2.0.3",
  "updatedAt": "2020-05-14T09:28:47.632Z"
}